100000001DAF607 SIMPLESNACION20140926030749011730300284777         2014090300120140929                                                                                                                                                                                                                                                                                                                                                                                                                              
2000000022014092520140930            00000000000000000000000000000000000001348166700010300000000000M2014090000000000000003900000000000000008000000000000000070000000000     00200708010000000000000000000000000000000000318850D9CE3A1E07C1F55       0011177                                                                                                                                                                                                            98897907141425400159527                      
2000000032014092520140922            00000000000000000000000000000000000001771014300019000000000000M2014080000000000000050000000000000000005000000000000000000000000000     0020070801000000000000000000000000000000000004161BF75D8A86516ADA0       0011779                                                                                                                                                                                                            98897907081426823147231                      
2000000042014092520140820            00000000000000000000000000000000000001771014300019000000000000M2014070000000000000050000000000000000059000000000000000050000000000     0020070801000000000000000000000000000000000004650E7A50F23679C4135       0011779                                                                                                                                                                                                            98897907081426823147207                      
2000000052014092520140721            00000000000000000000000000000000000001771014300019000000000000M2014060000000000000050000000000000000100000000000000000090000000000     0020070801000000000000000000000000000000000005021F71D96034CE82ACD       0011779                                                                                                                                                                                                            98897907081426823147193                      
99999999900000600000000000001732                                                                                                                                                                                                                                                                                                                                                                                                                                                                                    
