100000001DAF607 SIMPLESNACION20140708029797011730300284777         2014070100120140709                                                                                                                                                                                                                                                                                                                                                                                                                              
2000000022014070720140520            00000000000000000000000000000000000001776701600012700000000000M2014040000000000000260000000000000000480000000000000000470000000000     002007080100000000000000000000000000000000007872490E3656B11ED03D4       0011779                                                                                                                                                                                                            98897901071418801391006                      
2000000032014070720140721            00000000000000000000000000000000000000694295400010800000000000M2014060000000000017152600000000000000000000000000000000000000000000     00200708010000000000000000000000000000000013620365AD480037DD09D1F       0011779                                                                                                                                                                                                            98897901071418402865560                      
2000000042014070720140721            00000000000000000000000000000000000001283944200010500000000000M2014060000000000000050000000000000000000000000000000000000000000000     0020070801000000000000000000000000000000000004120D77FC1579A59BDCD       0011779                                                                                                                                                                                                            98897901081400901786497                      
2000000052014070720140721            00000000000000000000000000000000000001541661000014800000000000M2014060000000000077206900000000000000000000000000000000000000000000     0020070801000000000000000000000000000000001976491F0ED967363FB7FD0       0011779                                                                                                                                                                                                            98897901071418203193057                      
99999999900000600000000000947222                                                                                                                                                                                                                                                                                                                                                                                                                                                                                    
