100000001DAF607 SIMPLESNACION20140821030319011730300284777         2014080300120140822                                                                                                                                                                                                                                                                                                                                                                                                                              
2000000022014082020140820            00000000000000000000000000000000000002005297800010400000000000M2014070000000000000036100000000000000000000000000000000000000000000     0020070801000000000000000000000000000000000003297F6E460BB6C9922CD       0011779                                                                                                                                                                                                            98897901071423102714201                      
2000000032014082020140820            00000000000000000000000000000000000001239252300010000000000000M2014070000000000000050000000000000000000000000000000000000000000000     002007080100000000000000000000000000000000000412028F75F82B9F870D2       0011779                                                                                                                                                                                                            98897907081416940266965                      
2000000042014082020140820            00000000000000000000000000000000000001558437500011300000000000M2014070000000000000050000000000000000000000000000000000000000000000     0020070801000000000000000000000000000000000004220BEE655F40EC4B2DD       0011779                                                                                                                                                                                                            98897907191409635997922                      
2000000052014082020140820            00000000000000000000000000000000000000460479800013100000000000M2014070000000000000315100000000000000000000000000000000000000000000     0020070801000000000000000000000000000000000007088FE760B82CA38E8DA       0011779                                                                                                                                                                                                            98897901071422705081466                      
2000000062014082020140820            00000000000000000000000000000000000001241028200018400000000000M2014070000000000000348000000000000000000000000000000000000000000000     0020070801000000000000000000000000000000000016400689C966E66F89F58       0011779                                                                                                                                                                                                            98897901071421600738661                      
2000000072014082020140820            00000000000000000000000000000000000000490553400011800000000000M2014070000000000000164800000000000000000000000000000000000000000000     00200708010000000000000000000000000000000000229626097DD8695F2C920       0011779                                                                                                                                                                                                            98897901071423007061999                      
2000000082014082020140820            00000000000000000000000000000000000000056699800019600000000000M2014070000000000000792000000000000000000000000000000000000000000000     002007080100000000000000000000000000000000002376094B3427234FDAAB3       0011779                                                                                                                                                                                                            98897901071422703260754                      
2000000092014082020140820            00000000000000000000000000000000000000547775200016100000000000M2014070000000000000280000000000000000000000000000000000000000000000     0020070801000000000000000000000000000000000027804F2C6F35B413C7FCA       0011779                                                                                                                                                                                                            98897901071421700742849                      
2000000102014082020140820            00000000000000000000000000000000000000933069500014400000000000M2014070000000000000750500000000000000000000000000000000000000000000     00200708010000000000000000000000000000000000349832B1EB09F5FE98466       0011779                                                                                                                                                                                                            98897901071422702194790                      
2000000112014082020140820            00000000000000000000000000000000000000747929900015800000000000M2014070000000000000204000000000000000000000000000000000000000000000     0020070801000000000000000000000000000000000036876A3AC723F68E2150B       0011779                                                                                                                                                                                                            98897901071423007096059                      
2000000122014082020140820            00000000000000000000000000000000000007379213700010800000000000M2014070000000000000819500000000000000000000000000000000000000000000     0020070801000000000000000000000000000000000037142B5F0035B4257D511       0011779                                                                                                                                                                                                            98897901071421701241746                      
2000000132014082020140820            00000000000000000000000000000000000000623140200018300000000000M2014070000000000002829600000000000000000000000000000000000000000000     0020070801000000000000000000000000000000000084888AD766366B5B6817B       0011779                                                                                                                                                                                                            98897901071423005619429                      
2000000142014082020140820            00000000000000000000000000000000000000918257100016900000000000M2014070000000000001589100000000000000000000000000000000000000000000     002007080100000000000000000000000000000000011026921A2A345B4181974       0011779                                                                                                                                                                                                            98897901071423007115703                      
2000000152014082020140820            00000000000000000000000000000000000000342284300017400000000000M2014070000000000004447600000000000000000000000000000000000000000000     0020070801000000000000000000000000000000000139827D4FB5DDB93F94B25       0011779                                                                                                                                                                                                            98897901071421700700569                      
2000000162014082020140820            00000000000000000000000000000000000000618415300011200000000000M2014070000000000000193900000000000000000000000000000000000000000000     00200708010000000000000000000000000000000001927192E262D2CAF994B41       0011779                                                                                                                                                                                                            98897901071423007106348                      
2000000172014082020140820            00000000000000000000000000000000000000141024900013800000000000M2014070000000000007962900000000000000000000000000000000000000000000     0020070801000000000000000000000000000000000258730ECAE2851FEDE5AA4       0011779                                                                                                                                                                                                            98897901071421803589091                      
2000000182014082020140820            00000000000000000000000000000000000000412723200016600000000000M2014070000000000006922300000000000000000000000000000000000000000000     00200708010000000000000000000000000000000003587174C70AEBE961F23B2       0011779                                                                                                                                                                                                            98897901071423007083801                      
2000000192014082020140820            00000000000000000000000000000000000001680780300019200000000000M2014070000000000000050000000000000000000000000000000000000000000000     00200708010000000000000000000000000000000000042207177ED3BD1AC468D       0011779                                                                                                                                                                                                            98897907081410087553540                      
2000000202014082020140820            00000000000000000000000000000000000001708949900015800000000000M2014070000000000000057100000000000000000000000000000000000000000000     002007080100000000000000000000000000000000000128272C17D1D5E82ACDA       0011779                                                                                                                                                                                                            98897901071421802231886                      
2000000212014082020140820            00000000000000000000000000000000000001982756500017500000000000M2014070000000000000050000000000000000000000000000000000000000000000     0020070801000000000000000000000000000000000004120A14120C14E0837DF       0011779                                                                                                                                                                                                            98897907081406570033212                      
2000000222014082020140820            00000000000000000000000000000000000001085775400011600000000000M2014070000000000000200500000000000000000000000000000000000000000000     0020070801000000000000000000000000000000000006015BD41A24CD029A892       0011779                                                                                                                                                                                                            98897901071423000340663                      
2000000232014082020140820            00000000000000000000000000000000000001420211000014000000000000M2014070000000000000048100000000000000000000000000000000000000000000     00200708010000000000000000000000000000000000185204FF8CAFC995462F9       0011779                                                                                                                                                                                                            98897901071421902571824                      
2000000242014082020140820            00000000000000000000000000000000000001117178000015900000000000M2014070000000000000200000000000000000000000000000000000000000000000     0020070801000000000000000000000000000000000037975B77CD5EB1647D977       0011779                                                                                                                                                                                                            98897901071422703350451                      
2000000252014082020140820            00000000000000000000000000000000000000151839300019200000000000M2014070000000000001973600000000000000000000000000000000000000000000     00200708010000000000000000000000000000000000592084B90D1C40A57A0F5       0011779                                                                                                                                                                                                            98897901071423005975551                      
2000000262014082020140820            00000000000000000000000000000000000000173117300014200000000000M2014070000000000000108800000000000000000000000000000000000000000000     0020070801000000000000000000000000000000000150436B1DF5B9CB5D642E5       0011779                                                                                                                                                                                                            98897901071422703263141                      
2000000272014082020140820            00000000000000000000000000000000000003371014600018000000000000M2014070000000000003112800000000000000000000000000000000000000000000     0020070801000000000000000000000000000000000156120F4358FA4DAD609DD       0011779                                                                                                                                                                                                            98897901071423004433860                      
2000000282014082020140820            00000000000000000000000000000000000000877085300011400000000000M2014070000000000000437500000000000000000000000000000000000000000000     00200708010000000000000000000000000000000004073003FC5AF50ECE2B668       0011779                                                                                                                                                                                                            98897901071421701498933                      
2000000292014082020140820            00000000000000000000000000000000000001310770600010700000000000M2014070000000000000050000000000000000000000000000000000000000000000     00200708010000000000000000000000000000000000041206B3FB040F7E828E3       0011779                                                                                                                                                                                                            98897901081404700169809                      
2000000302014082020140820            00000000000000000000000000000000000001678092200010700000000000M2014070000000000000050000000000000000000000000000000000000000000000     0020070801000000000000000000000000000000000004120ACF5B522477F3024       0011779                                                                                                                                                                                                            98897907191409633582040                      
2000000312014082020140820            00000000000000000000000000000000000001530379300019500000000000M2014070000000000000050000000000000000000000000000000000000000000000     0020070801000000000000000000000000000000000004120FAFC92B287E596ED       0011779                                                                                                                                                                                                            98897907191409632834704                      
2000000322014082020140820            00000000000000000000000000000000000001673898200015300000000000M2014070000000000000050000000000000000000000000000000000000000000000     0020070801000000000000000000000000000000000004220508A1ABC72F963C6       0011779                                                                                                                                                                                                            98897907191409633538807                      
2000000332014082020140820            00000000000000000000000000000000000001506555500019900000000000M2014070000000000000050000000000000000000000000000000000000000000000     00200708010000000000000000000000000000000000042202466E8A9D829639F       0011779                                                                                                                                                                                                            98897907191409632606701                      
2000000342014082020140820            00000000000000000000000000000000000001049848400010200000000000M2014070000000000004518600000000000000000000000000000000000000000000     00200708010000000000000000000000000000000002429694ED7A288B67E6570       0011779                                                                                                                                                                                                            98897901071421902462138                      
2000000352014082020140820            00000000000000000000000000000000000001181586800016600000000000M2014070000000000000050000000000000000000000000000000000000000000000     00200708010000000000000000000000000000000000041207CAC049C8244FD53       0011779                                                                                                                                                                                                            98897907081406671605246                      
2000000362014082020140820            00000000000000000000000000000000000001570112900010200000000000M2014070000000000000557500000000000000000000000000000000000000000000     0020070801000000000000000000000000000000000027394ACCEB9298C9AC99F       0011779                                                                                                                                                                                                            98897901071423007103349                      
2000000372014082020140820            00000000000000000000000000000000000000943248000013400000000000M2014070000000000000740000000000000000000000000000000000000000000000     0020070801000000000000000000000000000000000030750280F5344BB6BF9F8       0011779                                                                                                                                                                                                            98897901071422705036924                      
2000000382014082020140820            00000000000000000000000000000000000000929307000015000000000000M2014070000000000000463000000000000000000000000000000000000000000000     0020070801000000000000000000000000000000000067315E9FB413AB2878699       0011779                                                                                                                                                                                                            98897901071423100996846                      
2000000392014082020140820            00000000000000000000000000000000000000930815100018600000000000M2014070000000000003699900000000000000000000000000000000000000000000     0020070801000000000000000000000000000000000112702D92FFA44E092A2C3       0011779                                                                                                                                                                                                            98897901071422705119382                      
2000000402014082020140820            00000000000000000000000000000000000002653112900011000000000000M2014070000000000000038500000000000000000000000000000000000000000000     00200708010000000000000000000000000000000001770732490CD38C9F73A63       0011779                                                                                                                                                                                                            98897901071422403733452                      
2000000412014082020140820            00000000000000000000000000000000000001143658000018000000000000M2014070000000000001962300000000000000000000000000000000000000000000     0020070801000000000000000000000000000000000207888ABBEC5A2E738F938       0011779                                                                                                                                                                                                            98897901071423105253302                      
2000000422014082020140820            00000000000000000000000000000000000000173451200014400000000000M2014070000000000004330600000000000000000000000000000000000000000000     0020070801000000000000000000000000000000000240137094C203291C0AAEA       0011779                                                                                                                                                                                                            98897901071422002926314                      
2000000432014082020140820            00000000000000000000000000000000000001035749800010600000000000M2014070000000000003831900000000000000000000000000000000000000000000     0020070801000000000000000000000000000000000768686EE8B6EB4E7B8230A       0011779                                                                                                                                                                                                            98897901071423002241832                      
2000000442014082020140820            00000000000000000000000000000000000000607084000010700000000000M2014070000000000014697100000000000000000000000000000000000000000000     002007080100000000000000000000000000000000077542009BCADF1406C9BCE       0011779                                                                                                                                                                                                            98897901071423005409599                      
99999999900004500000000000691332                                                                                                                                                                                                                                                                                                                                                                                                                                                                                    
