100000001DAF607 SIMPLESNACION20140930030782011730300284777         2014090300120141001                                                                                                                                                                                                                                                                                                                                                                                                                              
2000000022014092920140930            00000000000000000000000000000000000000607084000010700000000000M2014090000000000000198600000000000000397000000000000001840000000000     0020070801000000000000000000000000000000000030000C057140530322B69       0011779                                                                                                                                                                                                            98897907071426823120045                      
2000000032014092920140930            00000000000000000000000000000000000000507007600010700000000000M2014090000000000000649800000000000001300000000000000011290000000000     0020070801000000000000000000000000000000000030000FF4202BE2B059F1B       0011779                                                                                                                                                                                                            98897907071426209170366                      
2000000042014092920140620            00000000000000000000000000000000000001776701600012700000000000M2014050000000000000260000000000000000520000000000000000730000000000     002007080100000000000000000000000000000000008140570422ABE873AC3CE       0011779                                                                                                                                                                                                            98897901071426901019215                      
2000000052014092920140620            00000000000000000000000000000000000001558437500011300000000000M2014050000000000000050000000000000000100000000000000000140000000000     00200708010000000000000000000000000000000000051832B70EC62CFF4D545       0011779                                                                                                                                                                                                            98897907081424894468344                      
2000000062014092920130121            00000000000000000000000000000000000001328867300013000000000000M2012120000000000000050000000000000000100000000000000000750000000000     0020070801000000000000000000000000000000000004875C5B74C99AE208117       0011779                                                                                                                                                                                                            98897907081427225545142                      
2000000072014092920121220            00000000000000000000000000000000000001328867300013000000000000M2012110000000000000050000000000000000100000000000000000780000000000     00200708010000000000000000000000000000000000048978C3D5ACDB36B0871       0011779                                                                                                                                                                                                            98897907081427225545134                      
2000000082014092920121121            00000000000000000000000000000000000001328867300013000000000000M2012100000000000000050000000000000000100000000000000000810000000000     00200708010000000000000000000000000000000000049174C4B14ECB10559BC       0011779                                                                                                                                                                                                            98897907081427225545126                      
2000000092014092920121022            00000000000000000000000000000000000001328867300013000000000000M2012090000000000000050000000000000000100000000000000000840000000000     0020070801000000000000000000000000000000000004937A196CEC67519A576       0011779                                                                                                                                                                                                            98897907081427225545118                      
2000000102014092920120920            00000000000000000000000000000000000001328867300013000000000000M2012080000000000000050000000000000000100000000000000000870000000000     0020070801000000000000000000000000000000000004959052894A5BB49BAFD       0011779                                                                                                                                                                                                            98897907081427225545100                      
2000000112014092920120820            00000000000000000000000000000000000001328867300013000000000000M2012070000000000000050000000000000000100000000000000000900000000000     002007080100000000000000000000000000000000000497970A75886E8622AB2       0011779                                                                                                                                                                                                            98897907081427225545096                      
2000000122014092920120720            00000000000000000000000000000000000001328867300013000000000000M2012060000000000000050000000000000000100000000000000000930000000000     00200708010000000000000000000000000000000000050032AA3CBAC1A4591C5       0011779                                                                                                                                                                                                            98897907081427225545070                      
2000000132014092920120620            00000000000000000000000000000000000001328867300013000000000000M2012050000000000000050000000000000000100000000000000000960000000000     002007080100000000000000000000000000000000000502821A733BD5A00F8AF       0011779                                                                                                                                                                                                            98897907081427225545045                      
2000000142014092920120521            00000000000000000000000000000000000001328867300013000000000000M2012040000000000000050000000000000000100000000000000001000000000000     0020070801000000000000000000000000000000000005052676EA64FD312F0EB       0011779                                                                                                                                                                                                            98897907081427225545029                      
2000000152014092920120420            00000000000000000000000000000000000001328867300013000000000000M2012030000000000000050000000000000000100000000000000001030000000000     0020070801000000000000000000000000000000000005078FC05CB15A3D4E6BC       0011779                                                                                                                                                                                                            98897907081427225545002                      
2000000162014092920120312            00000000000000000000000000000000000001328867300013000000000000M2012010000000000000050000000000000000100000000000000001070000000000     0020070801000000000000000000000000000000000005104450DB616E348CB34       0011779                                                                                                                                                                                                            98897907081427225544979                      
2000000172014092920120320            00000000000000000000000000000000000001328867300013000000000000M2012020000000000000050000000000000000100000000000000001070000000000     00200708010000000000000000000000000000000000051046694D0E353ECBA7F       0011779                                                                                                                                                                                                            98897907081427225544995                      
2000000182014092920140930            00000000000000000000000000000000000000877825400014700000000000M2014090000000000000005500000000000000011000000000000000200000000000     0020070801000000000000000000000000000000000030000A6593437A2EC179A       0014449                                                                                                                                                                                                            98897907071426924090982                      
99999999900001900000000000023688                                                                                                                                                                                                                                                                                                                                                                                                                                                                                    
