100000001DAF607 SIMPLESNACION20140722029962011730300284777         2014070300120140723                                                                                                                                                                                                                                                                                                                                                                                                                              
2000000022014072120140721            00000000000000000000000000000000000001299981200017100000000000M2014060000000000000052100000000000000000000000000000000000000000000     002007080100000000000000000000000000000000000249046577479437219BF       0011779                                                                                                                                                                                                            98897901071419704427016                      
2000000032014072120140721            00000000000000000000000000000000000001310770600010700000000000M2014060000000000000050000000000000000000000000000000000000000000000     00200708010000000000000000000000000000000000041205347E8381E36B161       0011779                                                                                                                                                                                                            98897901081404700169795                      
2000000042014072120140721            00000000000000000000000000000000000001678092200010700000000000M2014060000000000000050000000000000000000000000000000000000000000000     002007080100000000000000000000000000000000000412093B1994F121687AC       0011779                                                                                                                                                                                                            98897907191409633582016                      
2000000052014072120140721            00000000000000000000000000000000000001530379300019500000000000M2014060000000000000050000000000000000000000000000000000000000000000     00200708010000000000000000000000000000000000041203075ED0393A7BB39       0011779                                                                                                                                                                                                            98897901081403403415939                      
2000000062014072120140721            00000000000000000000000000000000000001673898200015300000000000M2014060000000000000050000000000000000000000000000000000000000000000     00200708010000000000000000000000000000000000042207C08FC63FC0FDA92       0011779                                                                                                                                                                                                            98897907191409633538726                      
2000000072014072120140721            00000000000000000000000000000000000001506555500019900000000000M2014060000000000000050000000000000000000000000000000000000000000000     0020070801000000000000000000000000000000000004220A1A0AED45AA227E2       0011779                                                                                                                                                                                                            98897907191409632606655                      
2000000082014072120140620            00000000000000000000000000000000000001299981200017100000000000M2014050000000000000026100000000000000033000000000000000020000000000     0020070801000000000000000000000000000000000018961F8FD53679A9D718E       0011779                                                                                                                                                                                                            98897901071419704395688                      
2000000092014072120140721            00000000000000000000000000000000000000943248000013400000000000M2014060000000000000349800000000000000000000000000000000000000000000     0020070801000000000000000000000000000000000028459639C85E231470336       0011779                                                                                                                                                                                                            98897901071419600858100                      
2000000102014072120140721            00000000000000000000000000000000000001181586800016600000000000M2014060000000000000050000000000000000000000000000000000000000000000     002007080100000000000000000000000000000000000412095B8EB98C852DD3D       0011779                                                                                                                                                                                                            98897907081406671605238                      
2000000112014072120140721            00000000000000000000000000000000000001776701600012700000000000M2014060000000000000296000000000000000000000000000000000000000000000     00200708010000000000000000000000000000000000219226E091EFF68B9F4FA       0011779                                                                                                                                                                                                            98897901071418801475544                      
2000000122014072120140721            00000000000000000000000000000000000001191207200012100000000000M2014060000000000000090900000000000000000000000000000000000000000000     0020070801000000000000000000000000000000000030432A722504B106143BB       0011779                                                                                                                                                                                                            98897901071419010194459                      
2000000132014072120140721            00000000000000000000000000000000000000727945900011500000000000M2014060000000000000478900000000000000000000000000000000000000000000     002007080100000000000000000000000000000000003218514907CC93977BA38       0011779                                                                                                                                                                                                            98897901071418400817169                      
2000000142014072120140721            00000000000000000000000000000000000001769708900019000000000000M2014060000000000000034100000000000000000000000000000000000000000000     002007080100000000000000000000000000000000003387373E5687D890F0371       0011779                                                                                                                                                                                                            98897901071419201043668                      
2000000152014072120140721            00000000000000000000000000000000000000068135100010500000000000M2014060000000000001216200000000000000000000000000000000000000000000     00200708010000000000000000000000000000000000364892612B3DEC912E445       0011779                                                                                                                                                                                                            98897901071418401877629                      
2000000162014072120140721            00000000000000000000000000000000000001049848400010200000000000M2014060000000000000322500000000000000000000000000000000000000000000     00200708010000000000000000000000000000000000381425E55DD211C84F38E       0011779                                                                                                                                                                                                            98897901071418401797986                      
2000000172014072120140721            00000000000000000000000000000000000001570112900010200000000000M2014060000000000000945500000000000000000000000000000000000000000000     00200708010000000000000000000000000000000000444238B64FC5F1D162035       0011779                                                                                                                                                                                                            98897901071419801357850                      
2000000182014072120140721            00000000000000000000000000000000000000934531700013400000000000M2014060000000000002019300000000000000000000000000000000000000000000     0020070801000000000000000000000000000000000056520B74BD545E405EE05       0011779                                                                                                                                                                                                            98897901071419600702320                      
2000000192014072120140721            00000000000000000000000000000000000000618415300011200000000000M2014060000000000000436900000000000000000000000000000000000000000000     0020070801000000000000000000000000000000000110647FA82C341E1029325       0011779                                                                                                                                                                                                            98897901071419801467990                      
2000000202014072120140721            00000000000000000000000000000000000003371014600018000000000000M2014060000000000002397000000000000000000000000000000000000000000000     002007080100000000000000000000000000000000012373017D70783BA438595       0011779                                                                                                                                                                                                            98897901071419605315490                      
2000000212014072120140721            00000000000000000000000000000000000000930815100018600000000000M2014060000000000003996900000000000000000000000000000000000000000000     00200708010000000000000000000000000000000001477083DDF19A62C665727       0011779                                                                                                                                                                                                            98897901071419603753198                      
2000000222014072120140721            00000000000000000000000000000000000000375853300012500000000000M2014060000000000000306400000000000000000000000000000000000000000000     0020070801000000000000000000000000000000000188090B82D9F180E96F59B       0011779                                                                                                                                                                                                            98897901071419009346410                      
2000000232014072120140721            00000000000000000000000000000000000000938077800014800000000000M2014060000000000008696900000000000000000000000000000000000000000000     00200708010000000000000000000000000000000002948978302E25C88F0B332       0011779                                                                                                                                                                                                            98897901071419605226454                      
2000000242014072120140721            00000000000000000000000000000000000000743096200012000000000000M2014060000000000005275300000000000000000000000000000000000000000000     00200708010000000000000000000000000000000004810891C579F930D526A24       0011779                                                                                                                                                                                                            98897901071419603926114                      
2000000252014072120140721            00000000000000000000000000000000000000141024900013800000000000M2014060000000000021676500000000000000000000000000000000000000000000     0020070801000000000000000000000000000000000651707B8252E1AC3319D55       0011779                                                                                                                                                                                                            98897901071418402485384                      
2000000262014072120140721            00000000000000000000000000000000000003294574300012000000000000M2014060000000000026933100000000000000000000000000000000000000000000     00200708010000000000000000000000000000000007932653CC5D1E37757504C       0011779                                                                                                                                                                                                            98897901071419800682196                      
2000000272014072120140721            00000000000000000000000000000000000000549900700011300000000000M2014060000000000001341000000000000000000000000000000000000000000000     00200708010000000000000000000000000000000011698275D11D990CDDDA97D       0011779                                                                                                                                                                                                            98897901071419009387257                      
2000000282014072120140721            00000000000000000000000000000000000002005297800010400000000000M2014060000000000000039700000000000000000000000000000000000000000000     00200708010000000000000000000000000000000000023981EBFD88DAEBD07C4       0011779                                                                                                                                                                                                            98897901071419705454750                      
2000000292014072120140721            00000000000000000000000000000000000001239252300010000000000000M2014060000000000000050000000000000000000000000000000000000000000000     002007080100000000000000000000000000000000000412007BE7E2D42EBE2F4       0011779                                                                                                                                                                                                            98897907081416940266957                      
2000000302014072120140721            00000000000000000000000000000000000001156469000012800000000000M2014060000000000000050000000000000000000000000000000000000000000000     00200708010000000000000000000000000000000000041200E6753C15F520056       0011779                                                                                                                                                                                                            98897901081402102689365                      
2000000312014072120140721            00000000000000000000000000000000000001705463800010800000000000M2014060000000000000050000000000000000000000000000000000000000000000     0020070801000000000000000000000000000000000004220F2DC73D6E1C13609       0011779                                                                                                                                                                                                            98897901081402007565476                      
2000000322014072120140721            00000000000000000000000000000000000001742338800013600000000000M2014060000000000000050000000000000000000000000000000000000000000000     002007080100000000000000000000000000000000000422086C154982C33CC65       0011779                                                                                                                                                                                                            98897901081402007863833                      
2000000332014072120140721            00000000000000000000000000000000000001558437500011300000000000M2014060000000000000050000000000000000000000000000000000000000000000     0020070801000000000000000000000000000000000004220AE9C8BBEF8D4E921       0011779                                                                                                                                                                                                            98897907191409635997906                      
2000000342014072120140721            00000000000000000000000000000000000001672371700010000000000000M2014060000000000000050000000000000000000000000000000000000000000000     00200708010000000000000000000000000000000000042203D7D4595544088E9       0011779                                                                                                                                                                                                            98897907191409633474833                      
2000000352014072120140820            00000000000000000000000000000000000001672371700010000000000000M2014070000000000000050000000000000000000000000000000000000000000000     00200708010000000000000000000000000000000000042204C00D68055FB624F       0011779                                                                                                                                                                                                            98897907191409633474876                      
2000000362014072120140721            00000000000000000000000000000000000009754415800016400000000000M2014060000000000000640000000000000000000000000000000000000000000000     00200708010000000000000000000000000000000000144005B28A24DC611B146       0011779                                                                                                                                                                                                            98897901071419009369437                      
2000000372014072120140721            00000000000000000000000000000000000001368253600018600000000000M2014060000000000000298400000000000000000000000000000000000000000000     00200708010000000000000000000000000000000000160209E5E23F21241CCDF       0011779                                                                                                                                                                                                            98897901071419112238021                      
2000000382014072120140721            00000000000000000000000000000000000000747929900015800000000000M2014060000000000001490000000000000000000000000000000000000000000000     00200708010000000000000000000000000000000000553640E847A49D2EB1B6B       0011779                                                                                                                                                                                                            98897901071419801250214                      
2000000392014072120140721            00000000000000000000000000000000000000490553400011800000000000M2014060000000000002466400000000000000000000000000000000000000000000     00200708010000000000000000000000000000000000779944A0BBBB5266A69FF       0011779                                                                                                                                                                                                            98897901071419800851427                      
2000000402014072120140721            00000000000000000000000000000000000000342284300017400000000000M2014060000000000004392800000000000000000000000000000000000000000000     0020070801000000000000000000000000000000000138395DC142C203A1C9143       0011779                                                                                                                                                                                                            98897901071418302230040                      
2000000412014072120140721            00000000000000000000000000000000000001435707600018300000000000M2014060000000000003903100000000000000000000000000000000000000000000     002007080100000000000000000000000000000000014734363C601293046A687       0011779                                                                                                                                                                                                            98897901071419604326218                      
2000000422014072120140721            00000000000000000000000000000000000001143658000018000000000000M2014060000000000000525000000000000000000000000000000000000000000000     0020070801000000000000000000000000000000000159685C949C24E83F64940       0011779                                                                                                                                                                                                            98897901071419705177420                      
2000000432014072120140721            00000000000000000000000000000000000000863702600015700000000000M2014060000000000001492200000000000000000000000000000000000000000000     0020070801000000000000000000000000000000000170698933DFD6825A5B8AC       0011779                                                                                                                                                                                                            98897901071419803339182                      
2000000442014072120140721            00000000000000000000000000000000000000412723200016600000000000M2014060000000000004592700000000000000000000000000000000000000000000     0020070801000000000000000000000000000000000235435D357B41357D82831       0011779                                                                                                                                                                                                            98897901071419801107888                      
2000000452014072120140721            00000000000000000000000000000000000000729435200014600000000000M2014060000000000001057200000000000000000000000000000000000000000000     00200708010000000000000000000000000000000002380944F531BB1725F9454       0011779                                                                                                                                                                                                            98897901071419114928165                      
2000000462014072120140721            00000000000000000000000000000000000001535706200012200000000000M2014060000000000000050000000000000000000000000000000000000000000000     0020070801000000000000000000000000000000000004220017FF3607323BCA1       0011779                                                                                                                                                                                                            98897901081400805572007                      
2000000472014072120140721            00000000000000000000000000000000000001854417300013600000000000M2014060000000000000050000000000000000000000000000000000000000000000     0020070801000000000000000000000000000000000004220AA80C70314563281       0011779                                                                                                                                                                                                            98897901081402010283656                      
2000000482014072120140721            00000000000000000000000000000000000001373278300014000000000000M2014060000000000000050000000000000000000000000000000000000000000000     0020070801000000000000000000000000000000000004220E3DA1087F3C66A22       0011779                                                                                                                                                                                                            98897901081404300491908                      
2000000492014072120140721            00000000000000000000000000000000000000929307000015000000000000M2014060000000000000138200000000000000000000000000000000000000000000     0020070801000000000000000000000000000000000020770425F2FB0505C4678       0011779                                                                                                                                                                                                            98897901071419705892995                      
2000000502014072120140721            00000000000000000000000000000000000000515183700015500000000000M2014060000000000001097000000000000000000000000000000000000000000000     00200708010000000000000000000000000000000000406464F1058AA3346A14E       0011779                                                                                                                                                                                                            98897901071418401755833                      
2000000512014072120140721            00000000000000000000000000000000000000933069500014400000000000M2014060000000000001052400000000000000000000000000000000000000000000     00200708010000000000000000000000000000000000438302F8EAB61E55A5019       0011779                                                                                                                                                                                                            98897901071419701662375                      
2000000522014072120140721            00000000000000000000000000000000000001386733300016400000000000M2014060000000000000251000000000000000000000000000000000000000000000     002007080100000000000000000000000000000000004738583500BE1923D5BCD       0011779                                                                                                                                                                                                            98897901071419605969538                      
2000000532014072120140721            00000000000000000000000000000000000000918257100016900000000000M2014060000000000000988200000000000000000000000000000000000000000000     0020070801000000000000000000000000000000000102749E6ED5A3E29AAEFEB       0011779                                                                                                                                                                                                            98897901071419802039347                      
2000000542014072120140721            00000000000000000000000000000000000000173117300014200000000000M2014060000000000000061700000000000000000000000000000000000000000000     0020070801000000000000000000000000000000000123375B690119745C642DC       0011779                                                                                                                                                                                                            98897901071419704284843                      
2000000552014072120140721            00000000000000000000000000000000000000968859100010600000000000M2014060000000000006404800000000000000000000000000000000000000000000     00200708010000000000000000000000000000000004857282DF09EBD60FCC62A       0011779                                                                                                                                                                                                            98897901071418401695768                      
2000000562014072120140721            00000000000000000000000000000000000000590052000017400000000000M2014060000000000010075100000000000000000000000000000000000000000000     0020070801000000000000000000000000000000000777537535B1522408C155C       0014270                                                                                                                                                                                                            98897901071418501626601                      
99999999900005700000000001186608                                                                                                                                                                                                                                                                                                                                                                                                                                                                                    
