100000001DAF607 SIMPLESNACION20140920030683011730300284777         2014090200120140923                                                                                                                                                                                                                                                                                                                                                                                                                              
2000000022014091920140922            00000000000000000000000000000000000001982756500017500000000000M2014080000000000000050000000000000000000000000000000000000000000000     0020070801000000000000000000000000000000000004120F146C60EBEA98696       0011779                                                                                                                                                                                                            98897907081406570033239                      
2000000032014091920140922            00000000000000000000000000000000000001494661800015300000000000M2014080000000000003360000000000000000000000000000000000000000000000     0020070801000000000000000000000000000000000100800A11806219BCAE1C5       0011779                                                                                                                                                                                                            98897901071425100372962                      
2000000042014091920140922            00000000000000000000000000000000000000743096200012000000000000M2014080000000000011577700000000000000000000000000000000000000000000     0020070801000000000000000000000000000000000629080F09363B8DCCB4F78       0011779                                                                                                                                                                                                            98897901071426004679236                      
2000000052014091920140922            00000000000000000000000000000000000000490553400011800000000000M2014080000000000000015000000000000000000000000000000000000000000000     0020070801000000000000000000000000000000000003437BDE7D8CDB871C4C7       0011779                                                                                                                                                                                                            98897901071426001249559                      
2000000062014091920140922            00000000000000000000000000000000000001682794000019900000000000M2014080000000000000050000000000000000000000000000000000000000000000     0020070801000000000000000000000000000000000004120E0C2D41F6A845E38       0011779                                                                                                                                                                                                            98897901081402701988378                      
2000000072014091920140922            00000000000000000000000000000000000001672371700010000000000000M2014080000000000000050000000000000000000000000000000000000000000000     0020070801000000000000000000000000000000000004220441DEDA48B311FCC       0011779                                                                                                                                                                                                            98897907191409633474906                      
2000000082014091920140922            00000000000000000000000000000000000000918257100016900000000000M2014080000000000001514100000000000000000000000000000000000000000000     00200708010000000000000000000000000000000001393576AA84E21E9466209       0011779                                                                                                                                                                                                            98897901071426100983820                      
2000000092014091920140922            00000000000000000000000000000000000000046569800011000000000000M2014080000000000007278300000000000000000000000000000000000000000000     002007080100000000000000000000000000000000021417676AA718279CF0660       0011779                                                                                                                                                                                                            98897901071425100300538                      
2000000102014091920140922            00000000000000000000000000000000000000804188000015600000000000M2014080000000000001152000000000000000000000000000000000000000000000     00200708010000000000000000000000000000000005958891425DB8D6D2BEBF9       0012970                                                                                                                                                                                                            98897901071425600350992                      
99999999900001100000000000250471                                                                                                                                                                                                                                                                                                                                                                                                                                                                                    
