100000001DAF607 SIMPLESNACION20141003030830011730300284777         2014100100120141006                                                                                                                                                                                                                                                                                                                                                                                                                              
2000000022014100220141020            00000000000000000000000000000000000001872867600016100000000000M2014090000000000000050000000000000000000000000000000000000000000000     00200708010000000000000000000000000000000000041205AA876E2B93F6BDF       0011779                                                                                                                                                                                                            98897901081402103006008                      
2000000032014100220140922            00000000000000000000000000000000000001114386500012300000000000M2014080000000000000827100000000000000301000000000000000840000000000     0020070801000000000000000000000000000000000019471A6AAC9BCD393ABF0       0011779                                                                                                                                                                                                            98897901071427300807276                      
99999999900000400000000000009156                                                                                                                                                                                                                                                                                                                                                                                                                                                                                    
