100000001DAF607 SIMPLESNACION20141021031027011730300284777         2014100300120141022                                                                                                                                                                                                                                                                                                                                                                                                                              
2000000022014102020141020            00000000000000000000000000000000000001471762900016100000000000M2014090000000000000050000000000000000000000000000000000000000000000     0020070801000000000000000000000000000000000004220CD075E2038A9377C       0011779                                                                                                                                                                                                            98897901081404906325083                      
2000000032014102020141020            00000000000000000000000000000000000001982756500017500000000000M2014090000000000000050000000000000000000000000000000000000000000000     00200708010000000000000000000000000000000000041200DE8F05A15FA1A93       0011779                                                                                                                                                                                                            98897907081406570082213                      
2000000042014102020141020            00000000000000000000000000000000000001495430800018000000000000M2014090000000000000050000000000000000000000000000000000000000000000     0020070801000000000000000000000000000000000004220895A4E57A51F007B       0011779                                                                                                                                                                                                            98897907081418897957252                      
2000000052014102020141020            00000000000000000000000000000000000001515523800016300000000000M2014090000000000000050000000000000000000000000000000000000000000000     002007080100000000000000000000000000000000000422021C0A05437B27EBC       0011779                                                                                                                                                                                                            98897907081429347245026                      
2000000062014102020141020            00000000000000000000000000000000000001085775400011600000000000M2014090000000000000009000000000000000000000000000000000000000000000     0020070801000000000000000000000000000000000022365C121088F8E6443BC       0011779                                                                                                                                                                                                            98897901071428801772848                      
2000000072014102020141020            00000000000000000000000000000000000000496809900017000000000000M2014090000000000001951200000000000000000000000000000000000000000000     002007080100000000000000000000000000000000008197739246BC307ED3E36       0011779                                                                                                                                                                                                            98897901071427503439310                      
2000000082014102020141020            00000000000000000000000000000000000000151839300019200000000000M2014090000000000003300800000000000000000000000000000000000000000000     0020070801000000000000000000000000000000000099024990D43C91ADA4E23       0011779                                                                                                                                                                                                            98897901071429002154866                      
2000000092014102020141020            00000000000000000000000000000000000000173117300014200000000000M2014090000000000000075900000000000000000000000000000000000000000000     00200708010000000000000000000000000000000002217506C9459F27FC202BD       0011779                                                                                                                                                                                                            98897901071428906389351                      
2000000102014102020141020            00000000000000000000000000000000000000525714300010500000000000M2014090000000000001082100000000000000000000000000000000000000000000     0020070801000000000000000000000000000000000315365802EC01FDA20CC7D       0011779                                                                                                                                                                                                            98897901071427600788170                      
2000000112014102020141020            00000000000000000000000000000000000000968859100010600000000000M2014090000000000031050900000000000000000000000000000000000000000000     0020070801000000000000000000000000000000000914679F2AF1D37ECE34DC9       0011779                                                                                                                                                                                                            98897901071428000649460                      
2000000122014102020141020            00000000000000000000000000000000000001310770600010700000000000M2014090000000000000050000000000000000000000000000000000000000000000     002007080100000000000000000000000000000000000412062195DB763F8EC7B       0011779                                                                                                                                                                                                            98897901081404700169825                      
2000000132014102020141020            00000000000000000000000000000000000001678092200010700000000000M2014090000000000000050000000000000000000000000000000000000000000000     00200708010000000000000000000000000000000000041200AA94547AD85277B       0011779                                                                                                                                                                                                            98897907191409633582091                      
2000000142014102020141020            00000000000000000000000000000000000001530379300019500000000000M2014090000000000000050000000000000000000000000000000000000000000000     0020070801000000000000000000000000000000000004120021A33D20B1B5C4E       0011779                                                                                                                                                                                                            98897907191409632834801                      
2000000152014102020141020            00000000000000000000000000000000000001673898200015300000000000M2014090000000000000050000000000000000000000000000000000000000000000     0020070801000000000000000000000000000000000004220AC63636E666F1ECA       0011779                                                                                                                                                                                                            98897907191409633538912                      
2000000162014102020141020            00000000000000000000000000000000000001506555500019900000000000M2014090000000000000050000000000000000000000000000000000000000000000     0020070801000000000000000000000000000000000004220512EE933FFEE82FA       0011779                                                                                                                                                                                                            98897907191409632606817                      
2000000172014102020141020            00000000000000000000000000000000000000750704300010700000000000M2014090000000000000568100000000000000000000000000000000000000000000     0020070801000000000000000000000000000000000013780604F999E11719E9F       0011779                                                                                                                                                                                                            98897901071429003019741                      
2000000182014102020141020            00000000000000000000000000000000000001181586800016600000000000M2014090000000000000050000000000000000000000000000000000000000000000     00200708010000000000000000000000000000000000041201EF6380AEC3BE860       0011779                                                                                                                                                                                                            98897907081406671605270                      
2000000192014102020141020            00000000000000000000000000000000000001191207200012100000000000M2014090000000000000248200000000000000000000000000000000000000000000     00200708010000000000000000000000000000000000074478C1E87ECB2606B0E       0011779                                                                                                                                                                                                            98897901071428000931549                      
2000000202014102020141020            00000000000000000000000000000000000001570112900010200000000000M2014090000000000000811000000000000000000000000000000000000000000000     002007080100000000000000000000000000000000003580694256FC9EE3DB71E       0011779                                                                                                                                                                                                            98897901071428906768433                      
2000000212014102020141020            00000000000000000000000000000000000003371014600018000000000000M2014090000000000001910000000000000000000000000000000000000000000000     00200708010000000000000000000000000000000000955002490446C90DA1DF1       0011779                                                                                                                                                                                                            98897901071428805822815                      
2000000222014102020141020            00000000000000000000000000000000000000934531700013400000000000M2014090000000000003003000000000000000000000000000000000000000000000     0020070801000000000000000000000000000000000095785C814144106F7329C       0011779                                                                                                                                                                                                            98897901071428900687253                      
2000000232014102020141020            00000000000000000000000000000000000000930815100018600000000000M2014090000000000002228900000000000000000000000000000000000000000000     0020070801000000000000000000000000000000000106558E78CA6C8808D36EF       0011779                                                                                                                                                                                                            98897901071428902634718                      
2000000242014102020141020            00000000000000000000000000000000000001351687900017000000000000M2014090000000000002586700000000000000000000000000000000000000000000     0020070801000000000000000000000000000000000127421F69E5CCC9498435F       0011779                                                                                                                                                                                                            98897901071428901129459                      
2000000252014102020141020            00000000000000000000000000000000000001407428700010900000000000M2014090000000000000034600000000000000000000000000000000000000000000     0020070801000000000000000000000000000000000298816F25AC6A6C2929BE2       0011779                                                                                                                                                                                                            98897901071428100758032                      
2000000262014102020141020            00000000000000000000000000000000000000618415300011200000000000M2014090000000000004496900000000000000000000000000000000000000000000     0020070801000000000000000000000000000000000341584A603740ECCDE966D       0011779                                                                                                                                                                                                            98897901071428906780565                      
2000000272014102020141020            00000000000000000000000000000000000000141024900013800000000000M2014090000000000009387200000000000000000000000000000000000000000000     002007080100000000000000000000000000000000036446786A1DD1F4B30F035       0011779                                                                                                                                                                                                            98897901071428000908660                      
2000000282014102020141020            00000000000000000000000000000000000000108924300010000000000000M2014090000000000005545700000000000000000000000000000000000000000000     00200708010000000000000000000000000000000005187570E88E9223BD0FDF4       0011779                                                                                                                                                                                                            98897901071428101030733                      
2000000292014102020141020            00000000000000000000000000000000000003294574300012000000000000M2014090000000000029417200000000000000000000000000000000000000000000     0020070801000000000000000000000000000000000866553C9EED7184C83309F       0011779                                                                                                                                                                                                            98897901071428902781559                      
2000000302014102020141020            00000000000000000000000000000000000000173451200014400000000000M2014090000000000025424800000000000000000000000000000000000000000000     0020070801000000000000000000000000000000000948245F2782E575E798158       0011779                                                                                                                                                                                                            98897901071428202775823                      
2000000312014102020141020            00000000000000000000000000000000000001408082100019000000000000M2014090000000000000532600000000000000000000000000000000000000000000     0020070801000000000000000000000000000000001041717C629F6C313E546C4       0011779                                                                                                                                                                                                            98897901071428902498598                      
2000000322014102020141020            00000000000000000000000000000000000000549900700011300000000000M2014090000000000001085500000000000000000000000000000000000000000000     002007080100000000000000000000000000000000128482857ECF426FDA25EED       0011779                                                                                                                                                                                                            98897901071428900882668                      
2000000332014102020141020            00000000000000000000000000000000000000694295400010800000000000M2014090000000000020374100000000000000000000000000000000000000000000     0020070801000000000000000000000000000000001733187D198BE12CEE1346F       0011779                                                                                                                                                                                                            98897901071427602307845                      
2000000342014102020141020            00000000000000000000000000000000000001682794000019900000000000M2014090000000000000050000000000000000000000000000000000000000000000     002007080100000000000000000000000000000000000412067894ADF83F6B13B       0011779                                                                                                                                                                                                            98897901081402701988394                      
2000000352014102020141020            00000000000000000000000000000000000001558437500011300000000000M2014090000000000000050000000000000000000000000000000000000000000000     00200708010000000000000000000000000000000000042205558E79FABD8B9A6       0011779                                                                                                                                                                                                            98897907191409635997949                      
2000000362014102020141020            00000000000000000000000000000000000001205368000019000000000000M2014090000000000000050000000000000000000000000000000000000000000000     0020070801000000000000000000000000000000000004220471B8E3CA4109995       0011779                                                                                                                                                                                                            98897907191409630054060                      
2000000372014102020141020            00000000000000000000000000000000000000755715300018300000000000M2014090000000000000142000000000000000000000000000000000000000000000     0020070801000000000000000000000000000000000005860DB835541047F1681       0011779                                                                                                                                                                                                            98897901071429000815059                      
2000000382014102020140620            00000000000000000000000000000000000009754415800016400000000000M2014050000000000000640000000000000001280000000000000002380000000000     002007080100000000000000000000000000000000000791845441D23F0FEE363       0011779                                                                                                                                                                                                            98897901071428101473325                      
2000000392014102020141020            00000000000000000000000000000000000001241028200018400000000000M2014090000000000000292000000000000000000000000000000000000000000000     00200708010000000000000000000000000000000000184408979C44351330303       0011779                                                                                                                                                                                                            98897901071428001480931                      
2000000402014102020141020            00000000000000000000000000000000000002026916200013700000000000M2014090000000000000205700000000000000000000000000000000000000000000     0020070801000000000000000000000000000000000026350EE3EAA1339312069       0011779                                                                                                                                                                                                            98897901071428001004226                      
2000000412014102020141020            00000000000000000000000000000000000000933069500014400000000000M2014090000000000000745500000000000000000000000000000000000000000000     00200708010000000000000000000000000000000000284972BDECFB2B02F7714       0011779                                                                                                                                                                                                            98897901071428703374767                      
2000000422014102020141020            00000000000000000000000000000000000009754415800016400000000000M2014090000000000001280000000000000000000000000000000000000000000000     00200708010000000000000000000000000000000000288001E11071F87F8C607       0011779                                                                                                                                                                                                            98897901071428101465136                      
2000000432014102020141020            00000000000000000000000000000000000000490553400011800000000000M2014090000000000001663800000000000000000000000000000000000000000000     00200708010000000000000000000000000000000000518926D57D0731550CE07       0011779                                                                                                                                                                                                            98897901071428902950717                      
2000000442014102020141020            00000000000000000000000000000000000001990933100017700000000000M2014090000000000000259600000000000000000000000000000000000000000000     00200708010000000000000000000000000000000000693138F1EAAE76AF43F81       0011779                                                                                                                                                                                                            98897901071428902654620                      
2000000452014102020141020            00000000000000000000000000000000000001368253600018600000000000M2014090000000000002662000000000000000000000000000000000000000000000     00200708010000000000000000000000000000000000798600F43BBB0AB2AC0A5       0011779                                                                                                                                                                                                            98897901071428200716188                      
2000000462014102020141020            00000000000000000000000000000000000000918257100016900000000000M2014090000000000001189000000000000000000000000000000000000000000000     00200708010000000000000000000000000000000001292235A6365ACFB1B01ED       0011779                                                                                                                                                                                                            98897901071429000787071                      
2000000472014102020141020            00000000000000000000000000000000000000342284300017400000000000M2014090000000000004045500000000000000000000000000000000000000000000     00200708010000000000000000000000000000000001294344597AD8366669FE9       0011779                                                                                                                                                                                                            98897901071427500921374                      
2000000482014102020141020            00000000000000000000000000000000000001435707600018300000000000M2014090000000000004628300000000000000000000000000000000000000000000     0020070801000000000000000000000000000000000147578CF9B11BCE94F4A67       0011779                                                                                                                                                                                                            98897901071429002248909                      
2000000492014102020141020            00000000000000000000000000000000000000553442400015000000000000M2014090000000000000150000000000000000000000000000000000000000000000     002007080100000000000000000000000000000000020734121816CAA03734A65       0011779                                                                                                                                                                                                            98897901071428902128316                      
2000000502014102020141020            00000000000000000000000000000000000000610480400011700000000000M2014090000000000000350000000000000000000000000000000000000000000000     00200708010000000000000000000000000000000003307046BBBD0936E7B7946       0012292                                                                                                                                                                                                            98897901071428902576149                      
2000000512014102020141020            00000000000000000000000000000000000001992643100010100000000000M2014090000000000000234000000000000000000000000000000000000000000000     0020070801000000000000000000000000000000000011700FFDC622A3B367D9F       0013325                                                                                                                                                                                                            98897901071428303178170                      
2000000522014102020141020            00000000000000000000000000000000000000878315900013100000000000M2014090000000000000391200000000000000000000000000000000000000000000     00200708010000000000000000000000000000000000215640C453F72B5365FB6       0014042                                                                                                                                                                                                            98897901071429004547938                      
2000000532014102020141020            00000000000000000000000000000000000000942593400014000000000000M2014090000000000014647900000000000000000000000000000000000000000000     0020070801000000000000000000000000000000004758617C15BE3513C2C2599       0015208                                                                                                                                                                                                            98897901071428802386577                      
99999999900005400000000001794527                                                                                                                                                                                                                                                                                                                                                                                                                                                                                    
