100000001DAF607 SIMPLESNACION20141011030928011730300284777         2014100200120141014                                                                                                                                                                                                                                                                                                                                                                                                                              
2000000022014101020141020            00000000000000000000000000000000000001768242300013100000000000M2014090000000000000050000000000000000000000000000000000000000000000     0020070801000000000000000000000000000000000004220BD798DCA23ABBCDE       0011779                                                                                                                                                                                                            98897907191409634217656                      
99999999900000300000000000000500                                                                                                                                                                                                                                                                                                                                                                                                                                                                                    
